:020000040800F2
:1000000000000120AD2D0008090500080D050008BD
:10001000110500081505000819050008000000007A
:10002000000000000000000000000000E1230008C4
:100030001D050008000000008124000821050008BB
:10004000F52D0008F52D0008F52D0008F52D000808
:10005000F52D0008F52D0008F52D0008F52D0008F8
:10006000F52D0008F52D0008F52D0008F52D0008E8
:10007000F52D0008F52D0008F52D0008F52D0008D8
:10008000F52D0008F52D0008F52D0008F52D0008C8
:1000900029050008F52D0008F52D0008F52D0008AC
:1000A000F52D0008F52D0008F52D0008F52D0008A8
:1000B000F52D0008F52D00085D050008F52D000858
:1000C000F52D0008F52D0008F52D0008F52D000888
:1000D000F52D0008F52D0008F52D0008F52D000878
:1000E000F52D0008F52D0008F52D0008F52D000868
:1000F000F52D0008F52D0008F52D0008F52D000858
:10010000F52D0008F52D0008F52D0008F52D000847
:10011000F52D0008F52D0008F52D0008F52D000837
:10012000F52D0008F52D0008F52D0008F52D000827
:1001300000000000000000000000000000000000BF
:1001400000000000000000000000000000000000AF
:10015000000000000000000000000000000000009F
:10016000000000000000000000000000000000008F
:10017000000000000000000000000000000000007F
:10018000000000000000000000000000000000006F
:10019000000000000000000000000000000000005F
:1001A000000000000000000000000000000000004F
:1001B000000000000000000000000000000000003F
:1001C000000000000000000000000000000000002F
:1001D000000000000000000000000000000000001F
:0401E0005FF8E0F1F3
:1001F00010B5054C237833B9044B13B10448AFF361
:1002000000800123237010BD70000020000000005A
:10021000C0360008084B10B51BB108490848AFF3B9
:1002200000800848036803B910BD074B002BFBD0C2
:10023000BDE81040184700BF000000007400002017
:10024000C0360008700000200000000010B588B023
:10025000174B9A6942F010029A619A6902F01002F3
:100260000192019A9A6942F004029A619A6902F035
:1002700004020292029A9A6942F008029A619B690A
:1002800003F008030393039B0A4C00223821204605
:1002900001F0AEFE38230493012305930023069357
:1002A0000223079304A9204601F0ACFD08B010BD5D
:1002B000001002400010014008B5104D104B6B6358
:1002C0000A230E220F49104801F0B2F90F49002409
:1002D0004C618C610123CB610C604C608C60CC6004
:1002E0000C610B62284600F03FFA2146284600F0D8
:1002F000A9FC012002F04AFDFBE700BF100E002020
:10030000B40E002014370008580E0020E40D002021
:10031000F0B585B00022174B1A60164B1B68002BF6
:10032000FBD00025134B1D60134C0A2306221349F2
:10033000204601F07DF9124F124E3A7D314602A857
:1003400002F08CFD7A7D3146684602F087FD0A2373
:1003500008220DEB0201204601F06AF90A23082267
:100360006946204601F064F92946074800F06AFC16
:10037000D3E700BF0C0E0020580E002024370008E1
:10038000B40E00202C370008100E002008B50268BB
:10039000024B9A4201D101F0CFF908BD000800409C
:1003A000FEE700BF08B50E480E4B03601223436002
:1003B00000238360C3604FF4C02202614FF4E00267
:1003C00042618361C361036243628362C36200F07E
:1003D0004BFA18B1F4210448FFF7E2FF08BD00BF53
:1003E000100E0020006400403037000808B50B48AC
:1003F0000B4B03604FF4E133436000238360C36021
:1004000003610C2242618361C36101F0DFF820B116
:1004100040F207110348FFF7C3FF08BD580E002044
:10042000003801403037000800B591B00122069233
:100430004FF480330793002108910A9202220D9213
:100440000E934FF4E0130F9306A801F09DF918B135
:10045000C5211448FFF7A4FF0F2301930221029145
:10046000002303934FF480620492059301A801F0E6
:10047000C3FB18B1D3210B48FFF792FF01F07EFCBC
:10048000094BA3FB0030800901F008FE042001F0B5
:100490001BFE00220F214FF0FF3001F0C1FD11B013
:1004A0005DF804FB30370008D34D621070B58AB098
:1004B00001F030F9FFF7B8FFFFF7C8FEFFF772FF52
:1004C000FFF794FF0D4C05AD26460FCE0FC53368E0
:1004D0002B60002105A802F03FFC094B18606D4617
:1004E00014340FCC0FC523682B600021684602F03E
:1004F00033FC044B186002F029FCFEE7D8360008F4
:10050000D80E0020540E0020704700BFFEE700BF49
:10051000FEE700BFFEE700BFFEE700BF704700BF79
:1005200008B502F03BFC08BD38B5094D284600F07F
:1005300005FD084C22460021284600F03BFA62687F
:1005400041F214339A4202D10122034B1A6038BDA2
:10055000100E0020B40E00200C0E002008B502483A
:1005600000F0FCFD08BD00BFDC0E002000B583B02C
:10057000244B9A6942F001029A619A6902F00102E1
:100580000092009ADA6942F08052DA61DB6903F086
:1005900080530193019B032001F030FD002211469E
:1005A0006FF00B0001F03CFD002211466FF00A00D5
:1005B00001F036FD002211466FF0090001F030FD18
:1005C000002211466FF0040001F02AFD00221146BE
:1005D0006FF0030001F024FD00220F216FF00100F5
:1005E00001F01EFD00220F214FF0FF3001F018FD39
:1005F000054A536823F0E06343F00073536003B08F
:100600005DF804FB001002400000014002681D4B31
:100610009A4235D130B587B003F5D633DA6942F066
:100620000072DA61DB6903F000730193019B4FF400
:1006300080730293002403940494134D02A9284666
:1006400001F0E0FB4FF400730293022303930323B2
:10065000059302A9284601F0D5FB0C4A536823F400
:10066000C04343F0E06343F48043536022460521D6
:10067000142001F0D5FC142001F004FD07B030BDBA
:10068000704700BF00640040000C014000000140C2
:100690000268144B9A4224D110B586B003F5584332
:1006A0009A6942F480429A619B6903F48043019302
:1006B000019B4FF4007302930223039303230593DA
:1006C000094C02A9204601F09DFB4FF48063029380
:1006D00000230393049302A9204601F093FB06B084
:1006E00010BD7047003801400008014000B589B0D6
:1006F000002201461E2001F093FC1E2001F0C2FCE6
:10070000154BDA6942F00402DA61DB6903F0040395
:100710000193019B02A903A801F056FB01F034FBF1
:1007200040000E4BA3FB00239B0C013B0C480D4AE1
:10073000026040F2E732C2604360002303618360DD
:1007400000F012FE18B9064800F0F4FC00E00120A9
:1007500009B05DF804FB00BF0010024083DE1B43BC
:10076000DC0E002000080040F0B44B6901229A40E2
:100770000468D4F8003223F47C534D6A43EA05231D
:1007800043F00103C4F800320568D5F81C32D443A5
:100790002340C5F81C32CB69C3B90568D5F80C32C3
:1007A0002340C5F80C3206684B69CF688D8845EA4E
:1007B0000745483346F8335003684E698F680D8803
:1007C00045EA0745483603EBC6035D60CB69012B5C
:1007D00018D10568D5F80C321343C5F80C320668F9
:1007E0004B690F688D8845EA0745483346F8335012
:1007F00003684E698F688D8945EA0745483603EBE3
:10080000C6035D608B6933B90568D5F804322340AF
:10081000C5F8043205E00568D5F804321343C5F87D
:1008200004320B6933B90568D5F814321C40C5F899
:10083000144205E00468D4F814321343C4F81432A7
:100840000B6A012B05D10168D1F81C321A43C1F89B
:100850001C220268D2F8003223F00103C2F80032F1
:100860000020F0BC704700BF002800F0A08038B521
:10087000044690F83C3013F0FF0F04D1002380F8B9
:100880003D30FFF7C3FE022384F83C302268136832
:1008900023F0020313602268136843F0010313601E
:1008A00000F056FF05460BE000F052FF401B0A28FF
:1008B00006D9032084F83C00002384F83D3038BD7D
:1008C00023685A6812F0010FEED05A6812F0010F37
:1008D0005ED0A269012A01D1802200E00022E169F4
:1008E000012902D142F0400201E022F04002216AD7
:1008F000012902D142F0200201E022F02002616AC7
:10090000012902D142F0100201E022F01002A16A96
:10091000012902D142F0080201E022F00802E16A56
:10092000012902D142F0040201E022F00402196818
:1009300021F0FC010A431A602168A268E3681A43A7
:1009400023691A4363691A436368013B1343CB610C
:100950002268136823F00103136000F0F9FE0546D6
:100960000BE000F0F5FE401B0A2806D9032084F8AE
:100970003C00002384F83D3038BD23685A6812F0EB
:10098000010FEED15B6813F0010F03D0002302E0EA
:10099000002300E001232BB100202064012384F810
:1009A0003C3038BD042384F83C30012038BD0120A0
:1009B000704700BFF8B50D46B9B990F83C30DBB2CE
:1009C000222B00F02C8190F83C30DBB2422B00F05F
:1009D000288190F83C30DBB2622B00F0248190F843
:1009E0003C30DBB2722B00F02081012D17D190F842
:1009F0003C30DBB2322B00F01A8190F83C30DBB295
:100A0000522B00F0168190F83C30DBB2622B00F0E4
:100A1000128190F83C30DBB2722B00F00E8190F81E
:100A20003D30012B00F00B81012380F83D30C5B92A
:100A300090F83C30DBB2322B07D0522B09D0122B6E
:100A40000BD1422380F83C3023E0622380F83C3015
:100A50001FE0722380F83C301BE0222380F83C30FA
:100A600017E090F83C30DBB2222B07D0422B09D0A4
:100A7000122B0BD1522380F83C300AE0622380F81D
:100A80003C3006E0722380F83C3002E0322380F8EC
:100A90003C301646044600F05BFE07460FE0B6F118
:100AA000FF3F0CD026B100F053FEC01B864206D299
:100AB000032084F83C00002384F83D30F8BD3DB9A4
:100AC0002368DB6813F0030F0CBF0123002306E04B
:100AD00023681B6913F0030F0CBF01230023002BB5
:100AE000DDD10DB9636B00E0A36B216805F11B023A
:100AF00012018A5802F004029A603AB9216805F19D
:100B00001B0212018A58520D1A6006E0216805F195
:100B10001B0212018A58D2085A60216805F11B0293
:100B20001201895801F00201D96021681144496815
:100B300001F00F01196121680A445268C2F30722CB
:100B4000DA611D6221682A011144D1F8B8111975C2
:100B500021681144D1F8B811090A59752168114466
:100B6000D1F8B811090C997521681144D1F8B81160
:100B7000090ED97521681144D1F8BC111976216884
:100B80001144D1F8BC11090A597621681144D1F8F1
:100B9000BC11090C997621680A44D2F8BC21120EC6
:100BA000DA761DB923682022DA6002E02368202269
:100BB0001A61C5B994F83C30DBB2622B07D0722BB6
:100BC00009D0422B0BD1122384F83C3023E032238E
:100BD00084F83C301FE0522384F83C301BE00123B2
:100BE00084F83C3017E094F83C30DBB2622B07D03D
:100BF000722B09D0522B0BD1122384F83C300AE01F
:100C0000222384F83C3006E0422384F83C3002E0A2
:100C1000012384F83C30002084F83D00F8BD022018
:100C2000F8BD0220F8BD0220F8BD0220F8BD022068
:100C3000F8BD0220F8BD0220F8BD0220F8BD022058
:100C4000F8BD00BF0B4699B990F83C20D2B2222AD9
:100C500078D090F83C20D2B2422A75D090F83C204F
:100C6000D2B2622A72D090F83C20D2B2722A6FD0EF
:100C7000012B13D190F83C20D2B2322A6AD090F8DE
:100C80003C20D2B2522A67D090F83C20D2B2622ADD
:100C900064D090F83C20D2B2722A61D090F83D2006
:100CA000012A5FD010B4012280F83D20C3B990F82A
:100CB0003C20D2B2322A07D0522A09D0122A0BD1B4
:100CC000422280F83C2023E0622280F83C201FE092
:100CD000722280F83C201BE0222280F83C2017E0A2
:100CE00090F83C20D2B2222A07D0422A09D0122AF8
:100CF0000BD1522280F83C200AE0622280F83C208E
:100D000006E0722280F83C2002E0322280F83C208B
:100D1000002101640468626942F40F4242F001025A
:100D2000626180F83D1033B90268536943F00A03E9
:100D30005361084618E00268536943F05003536159
:100D4000002011E002207047022070470220704707
:100D5000022070470220704702207047022070472F
:100D6000022070470220704710BC7047704700BFD8
:100D700008B50268536923F00103536190F83C30D1
:100D8000DBB2122B04D10268536923F40F43536181
:100D900090F83C30DBB2522B07D0722B09D0422B9B
:100DA0000BD1222380F83C300AE0322380F83C301B
:100DB00006E0622380F83C3002E0012380F83C30FA
:100DC000FFF7D4FF002008BD704700BF10B50C46E8
:100DD00009B9436B00E0836B016804F11B02120147
:100DE0008A5802F004029A603AB9016804F11B02C1
:100DF00012018A58520D1A6006E0016804F11B02C4
:100E000012018A58D2085A60016804F11B021201CB
:100E1000895801F00201D96001681144496801F064
:100E20000F0119611C6201680A445268C2F307226B
:100E3000DA61016822011144D1F8B811197501680D
:100E40001144D1F8B811090A597501681144D1F853
:100E5000B811090C997501681144D1F8B811090E3F
:100E6000D97501681144D1F8BC1119760168114493
:100E7000D1F8BC11090A597601681144D1F8BC11A6
:100E8000090C997601680A44D2F8BC21120EDA7670
:100E900044B903682022DA600268536923F00A0328
:100EA000536107E0036820221A610268536923F046
:100EB0005003536190F83C30DBB2222B01D0322B2F
:100EC00004D10268536923F40F435361C4B990F805
:100ED0003C30DBB2622B07D0722B09D0422B0BD1F6
:100EE000122380F83C3023E0322380F83C301FE0AE
:100EF000522380F83C301BE0012380F83C3017E09F
:100F000090F83C30DBB2622B07D0722B09D0522B09
:100F10000BD1122380F83C300AE0222380F83C30C9
:100F200006E0422380F83C3002E0012380F83C30A8
:100F3000FFF74AFF002010BD704700BF70B50446A0
:100F40000268D168536911F0100F07D003F008034D
:100F500033B11023D3604FF4007502E0002500E0A8
:100F6000002522681169536903F0400311F0100F46
:100F700004D01BB145F480651023136123685A69BE
:100F800012F0010F2AD09E689968654A0A40996854
:100F900021F06F4121F47E01090C09046148B0433E
:100FA00005D05F48824202D05F4A914216D19968CB
:100FB0009A6802F400729B6803F0010311F0020FBB
:100FC00001D102B91BB12046FFF7D2FE01E045F482
:100FD000006522689168554B0B4393602368DA687B
:100FE0005B6903F0020312F0030F04D01BB1002170
:100FF0002046FFF7EBFE23681A695B6903F01003D4
:1010000012F0030F04D01BB101212046FFF7DEFED2
:10101000236C2B432364236898695A6902F4807215
:10102000596901F4004110F0010F05D022B119B146
:10103000226C42F00102226498695A6902F400723B
:10104000596901F4004110F0020F05D022B119B125
:10105000226C42F00202226498695A6902F48062AA
:10106000596901F4004110F0040F05D022B119B103
:10107000226C42F00402226498695A6902F4006208
:10108000596901F4004110F0700F36D0002A34D0B5
:10109000002932D09A6902F07002302A16D004D8A2
:1010A000102A09D0202A0CD023E0502A18D0602A18
:1010B0001BD0402A1DD10EE0226C42F008022264AF
:1010C00017E0226C42F01002226412E0226C42F01F
:1010D000200222640DE0226C42F04002226408E00B
:1010E000226C42F08002226403E0226C42F480729F
:1010F00022649A6922F070029A61236C7BB12368A2
:1011000004225A60012384F83C302268536923F496
:101110000F4323F05B0353612046FFF70DFF70BDC3
:101120000001000801000004000001100905010091
:10113000704700BF0268D36843F00103D3600268C0
:10114000136843F00103136000207047704700BF2D
:10115000704700BF704700BF704700BF10B504461E
:1011600003681A6912F0020F17D0DA6812F0020F42
:1011700013D06FF002021A610123037703689B69A1
:1011800013F0030F02D0FFF7E3FF04E0FFF7DEFFE9
:101190002046FFF7DFFF0023237723681A6912F048
:1011A000040F19D0DA6812F0040F15D06FF00402A2
:1011B0001A610223237723689B6913F4407F03D0CD
:1011C0002046FFF7C5FF05E02046FFF7BFFF20469A
:1011D000FFF7C0FF0023237723681A6912F0080F76
:1011E00019D0DA6812F0080F15D06FF008021A61F2
:1011F000042323772368DB6913F0030F03D0204611
:10120000FFF7A6FF05E02046FFF7A0FF2046FFF707
:10121000A1FF0023237723681A6912F0100F19D059
:10122000DA6812F0100F15D06FF010021A6108235F
:1012300023772368DB6913F4407F03D02046FFF750
:1012400087FF05E02046FFF781FF2046FFF782FF7A
:101250000023237723681A6912F0010F09D0DA6896
:1012600012F0010F05D06FF001021A612046FFF75E
:101270008DF823681A6912F0800F09D0DA6812F02D
:10128000800F05D06FF080021A61204600F08AF8C6
:1012900023681A6912F0400F09D0DA6812F0400F83
:1012A00005D06FF040021A612046FFF755FF236812
:1012B0001A6912F0200F09D0DA6812F0200F05D059
:1012C0006FF020021A61204600F06AF810BD00BFDE
:1012D0000368244A904212D002F5006290420ED078
:1012E000B0F1804F0BD0A2F59832904207D002F5B2
:1012F0008062904203D002F58062904203D123F0D5
:1013000070034A681343174A904212D002F50062F4
:1013100090420ED0B0F1804F0BD0A2F5983290429F
:1013200007D002F58062904203D002F580629042BD
:1013300003D123F44073CA68134323F080034A693E
:10134000134303608B68C3620B688362054B98424A
:1013500003D003F50063984201D10B6903630123B5
:1013600043617047002C0140B8B110B5044690F8B5
:101370003D3013F0FF0F04D1002380F83C30FFF71D
:10138000D7FE022384F83D30211D2068FFF7A0FF1F
:10139000012384F83D30002010BD0120704700BFBC
:1013A000704700BF704700BF2DE9F84381460168D0
:1013B0000B6923F44052C36813430B6181680369CE
:1013C0001943436919430068C26822F4B05323F0FB
:1013D0000C030B43C360D9F800104B6923F440722F
:1013E000D9F8183013434B61D9F800505B4B9D423C
:1013F00059D100F0D9FC00EB800000EB8000D9F857
:101400000440A400B0FBF4F4554EA6FB0434640978
:10141000240100F0C9FC00EB800000EB8000D9F84B
:1014200004309B00B0FBF3F700F0BEFC00EB800043
:1014300000EB8000D9F804309B00B0FBF3F3A6FB6F
:1014400003235B094FF0640808FB13731B0132335D
:10145000A6FB03235B0903F0F0031C4400F0A4FC8B
:1014600000EB800000EB8000D9F804309B00B0FB5B
:10147000F3F700F099FC00EB800000EB8000D9F856
:1014800004309B00B0FBF3F3A6FB03235B0908FBCE
:1014900013731B013233A6FB0323C3F343131C4412
:1014A000AC60BDE8F88300F06FFC00EB800000EB5F
:1014B0008000D9F80440A400B0FBF4F4284EA6FB49
:1014C00004346409240100F05FFC00EB800000EBB1
:1014D0008000D9F804309B00B0FBF3F700F054FC17
:1014E00000EB800000EB8000D9F804309B00B0FBDB
:1014F000F3F3A6FB03235B094FF0640808FB1373A7
:101500001B013233A6FB03235B0903F0F0031C44E9
:1015100000F03AFC00EB800000EB8000D9F80430CA
:101520009B00B0FBF3F700F02FFC00EB800000EB1A
:101530008000D9F804309B00B0FBF3F3A6FB032333
:101540005B0908FB13731B013233A6FB0323C3F3B0
:1015500043131C44AC60BDE8F88300BF0038014071
:101560001F85EB512DE9F04105460F46164698467A
:10157000069C1EE0B4F1FF3F1BD02CB100F0E8F850
:10158000C8EB0000844214D22A68D36823F4D073D5
:10159000D3602A68536923F001035361202385F83F
:1015A000393085F83A30002385F838300320BDE81B
:1015B000F0812B681B6837EA03030CBF012300236B
:1015C000B342D7D00020BDE8F08100BF68B310B5AA
:1015D000044690F8393013F0FF0F04D1002380F84F
:1015E0003830FFF755F8242384F839302268D3685F
:1015F00023F40053D3602046FFF7D6FE2268136918
:1016000023F4904313612268536923F02A03536142
:101610002268D36843F40053D3600020E0632023A2
:1016200084F8393084F83A3010BD0120704700BF8B
:101630002DE9F04182B01E4690F83930DBB2202B04
:1016400056D104460D469046002953D0002A53D067
:1016500090F83830012B51D0012380F83830002326
:10166000C363212380F8393000F072F80746A4F8EC
:101670002480A4F8268027E0E38C9BB2013B9BB238
:10168000E384A368B3F5805F12D100963B46002245
:1016900080212046FFF766FF90BB22682B88C3F3AA
:1016A0000803536023690BB902350DE001350BE0E7
:1016B00000963B46002280212046FFF753FF08BBDF
:1016C00023682A785A600135E38C9BB2002BD3D172
:1016D00000963B46002240212046FFF743FF034689
:1016E00090B9202284F83920002284F838200CE0B8
:1016F00002230AE0012308E0012306E0022304E0BC
:10170000032302E0032300E00323184602B0BDE8F0
:10171000F08100BF08B5074A136843F01003136057
:10172000032000F06BFC0020FEF7E0FFFEF71EFF39
:10173000002008BD00200240034A136803490978CD
:101740000B441360704700BF1C0F002000000020F6
:10175000014B1868704700BF1C0F002082B0084B77
:101760001B68084AA2FB03235B0A00FB03F00190FD
:1017700000BF019B5A1E0192002BF9D102B07047A5
:1017800004000020D34D621070B582B00446036897
:1017900013F0010F6BD0A84B5B6803F00C03042B14
:1017A0000AD0A54B5B6803F00C03082B0DD1A24BAC
:1017B0005B6813F4803F08D09F4B1B6813F4003F15
:1017C00055D06368002B52D1B8E16368B3F5803F10
:1017D00005D1994A136843F48033136026E063B956
:1017E00003F1804303F504331A6822F480321A604F
:1017F0001A6822F480221A6018E0B3F5A02F0CD1E9
:1018000003F18043A3F53C331A6842F480221A6046
:101810001A6842F480321A6008E0874B1A6822F492
:1018200080321A601A6822F480221A6063687BB1E1
:10183000FFF78EFF054605E0FFF78AFF401B64288F
:1018400000F27E817C4B1B6813F4003FF4D00EE065
:10185000FFF77EFF054605E0FFF77AFF401B64288F
:1018600000F27081744B1B6813F4003FF4D12368BD
:1018700013F0020F50D0704B5B6813F00C0F0AD0BE
:101880006D4B5B6803F00C03082B16D16A4B5B6849
:1018900013F4803F11D1684B1B6813F0020F03D083
:1018A0002369012B40F05081634A136823F0F80349
:1018B000616943EAC10313602EE02369D3B10122B9
:1018C0005E4B1A60FFF744FF054605E0FFF740FF57
:1018D000401B022800F23A81574B1B6813F0020F9D
:1018E000F4D0554A136823F0F803616943EAC10351
:1018F000136011E00022514B1A60FFF729FF0546E3
:1019000005E0FFF725FF401B022800F221814A4B2A
:101910001B6813F0020FF4D1236813F0080F29D0CD
:10192000A369ABB10122464B1A60FFF711FF0546D0
:1019300005E0FFF70DFF401B022800F20B813E4B34
:101940005B6A13F0020FF4D00120FFF707FF11E0EC
:1019500000223B4B1A60FFF7FBFE054605E0FFF750
:10196000F7FE401B022800F2F780334B5B6A13F04E
:10197000020FF4D1236813F0040F00F089802E4B7E
:10198000DB6913F0805F0BD12B4BDA6942F0805298
:10199000DA61DB6903F080530193019B012500E0CC
:1019A0000025284B1B6813F4807F13D1254A136848
:1019B00043F480731360FFF7CBFE064605E0FFF7A4
:1019C000C7FE801B642800F2C9801E4B1B6813F4FD
:1019D000807FF4D0E368012B05D1174A136A43F0E6
:1019E0000103136222E063B903F1804303F504337A
:1019F0001A6A22F001021A621A6A22F004021A62BA
:101A000014E0052B09D10C4B1A6A42F004021A6249
:101A10001A6A42F001021A6208E0074B1A6A22F0C1
:101A200001021A621A6A22F004021A62E368CBB158
:101A3000FFF78EFE06460FE0001002400000424213
:101A40008004424200700040FFF782FE801B41F29A
:101A50008833984200F28480494B1B6A13F0020FCE
:101A6000F2D00FE0FFF774FE064606E0FFF770FEC7
:101A7000801B41F28833984274D8414B1B6A13F0A3
:101A8000020FF3D125B13E4AD36923F08053D361CD
:101A9000E369002B68D03A4A526802F00C02082A27
:101AA00064D0022B37D10022364B1A60FFF750FE6C
:101AB000054604E0FFF74CFE401B022858D8304B87
:101AC0001B6813F0007FF5D1236AB3F5803F06D180
:101AD0002B494B6823F40032A36813434B6028481A
:101AE000436823F47411236A626A13430B4343600F
:101AF0000122244B1A60FFF72BFE044604E0FFF797
:101B000027FE001B022835D81D4B1B6813F0007FF1
:101B1000F5D0002031E000221A4B1A60FFF718FEC2
:101B2000044604E0FFF714FE001B022824D8144BDF
:101B30001B6813F0007FF5D100201EE001201CE09F
:101B400003201AE0032018E0012016E0032014E02F
:101B5000032012E0032010E003200EE003200CE03D
:101B600003200AE0032008E0002006E0012004E052
:101B7000032002E0032000E0032002B070BD00BF9C
:101B8000001002406000424230B486B0164D02ACF4
:101B900028686968AA68EB680FC42B8AADF804301E
:101BA000124B5B6803F00C02082A19D1C3F383427D
:101BB00006A90A4412F8100C13F4803F0CD00B4B0A
:101BC0005B68C3F340430B4413F8142C084B03FB2E
:101BD00000F0B0FBF2F004E0064B03FB00F000E085
:101BE000034806B030BC70470037000800100240C0
:101BF00000127A0000093D0070B55C4B1B6803F0D1
:101C000007038B420BD2594A136823F007030B4397
:101C10001360136803F00703994240F0978003684C
:101C200013F0020F06D0524C636823F0F002836871
:101C3000134363600D460446036813F0010F4DD053
:101C40004268012A05D14A4B1B6813F4003F0DD1AD
:101C50007EE0022A05D1464B1B6813F0007F05D1B8
:101C600078E0434B1B6813F0020F75D040494B6876
:101C700023F0030313434B60FFF76AFD06466368D6
:101C8000012B0ED106E0FFF763FD801B41F2883384
:101C9000984263D8364B5B6803F00C03042BF2D1F7
:101CA0001CE0022B15D106E0FFF752FD801B41F22C
:101CB0008833984254D82E4B5B6803F00C03082BF2
:101CC000F2D10BE0FFF744FD801B41F288339842CC
:101CD00048D8274B5B6813F00C0FF3D1234B1B68DC
:101CE00003F007039D420AD2204A136823F007033A
:101CF0002B431360136803F007039D4234D123681C
:101D000013F0040F06D01A494B6823F4E062E3682D
:101D100013434B60236813F0080F07D0144A53682D
:101D200023F46053216943EAC1035360FFF72CFF9A
:101D30000F4B5B68C3F303130E4AD35CD8400E4BC2
:101D400018600020FEF7D2FC002070BD012070BD9D
:101D5000012070BD012070BD012070BD032070BD49
:101D6000032070BD032070BD012070BD0020024023
:101D7000001002404C37000804000020014B186896
:101D8000704700BF0400002008B5FFF7F7FF044BC1
:101D90005B68C3F30223034AD35CD84008BD00BF8D
:101DA000001002405C37000808B5FFF7E7FF044B5E
:101DB0005B68C3F3C223034AD35CD84008BD00BFAD
:101DC000001002405C3700080F2303600B4B5A6879
:101DD00002F0030242605A6802F0F00282605A6820
:101DE00002F4E062C2605B68DB0803F4E063036155
:101DF000034B1B6803F007030B60704700100240A1
:101E000000200240F0B583B000263446DFE0012216
:101E1000A2400B6813409A4240F0D8804D68122DC2
:101E20002DD00BD8022D27D003D85DB3012D1ED0A5
:101E300035E0032D30D0112D1BD030E0664FBD4270
:101E400020D008D8A7F58017BD421BD007F58037F2
:101E5000BD4224D116E0614FBD4213D007F5803753
:101E6000BD420FD0A7F58017BD4218D10AE0CE6859
:101E700015E0CE68043612E0CE6808360FE0CE6872
:101E80000C360CE08D684DB1012D02D1026108269F
:101E900005E04261082602E0002600E00426FF2B50
:101EA00001D8864601E000F1040EFF2B01D8A20004
:101EB00002E0A4F108029200DEF800700F259540C0
:101EC00027EA050506FA02F22A43CEF800204A68FE
:101ED00012F0805F7AD0424A956945F0010595611C
:101EE000926902F001020192019AA708BD1C3D4AC5
:101EF00052F825E004F0030292000F2595402EEAE7
:101F0000050E394DA84215D005F58065A84213D0BD
:101F100005F58065A84211D005F58065A8420FD06F
:101F200005F58065A8420DD005F58065A8420BD166
:101F300005250AE0002508E0012506E0022504E069
:101F4000032502E0042500E0062505FA02F24EEA28
:101F500002020237234D45F827204A6812F4803FD9
:101F600005D005F580652A681A432A6004E01F4DF4
:101F70002A6822EA03022A604A6812F4003F04D069
:101F80001A4D6A681A436A6004E0184D6A6822EACA
:101F900003026A604A6812F4801F04D0134DAA68D5
:101FA0001A43AA6004E0114DAA6822EA0302AA605B
:101FB0004A6812F4001F04D00C4DEA681343EB602A
:101FC00004E00A4DEA6822EA0303EB6001340F2CB7
:101FD0007FF61DAF03B0F0BD0000211000003110EE
:101FE00000100240000001400008014000040140D0
:101FF0000AB101617047090401617047074AD3685B
:1020000023F4E0631B041B0C000200F4E06018439F
:1020100040F0BF6040F40030D060704700ED00E059
:1020200030B4164BDB68C3F30223C3F10704042C5E
:1020300028BF04241D1D062D01D9DD1E00E000254A
:10204000012303FA04F4013C2140A940AB40013BC9
:102050001A400A43002806DA00F00F001201D2B23B
:10206000074B1A5407E01201D2B200F1604000F5AC
:10207000614080F8002330BC704700BF00ED00E0F5
:1020800014ED00E0420900F01F00012303FA00F004
:10209000014B43F82200704700E100E00138B0F145
:1020A000807F0AD2064B5860F021064A82F823103E
:1020B0000020986007221A6070470120704700BF17
:1020C00010E000E000ED00E0042805D1054A1368A7
:1020D00043F0040313607047024A136823F00403BB
:1020E0001360704710E000E00F4B1A6842F00102E5
:1020F0001A6059680D4A0A405A601A6822F08472C0
:1021000022F480321A601A6822F480221A605A6817
:1021100022F4FE025A604FF41F029A604FF00062F0
:10212000034B9A60704700BF001002400000FFF8A8
:1021300000ED00E0124A12F0070F07D0D11D21F088
:102140000701C1F5406313440A4601E04FF44063C0
:102150000C480260002141601344083B23F0070350
:102160000948036059601960991A51601360074B60
:102170001960074B19604FF00042064B1A60704718
:102180009C0000209400002090000020A00C002063
:102190008C0000209C0C0020124B00E013461A68B3
:1021A0008242FBD310B45C681919884203D141689C
:1021B000214459601846446801198A420CD10A49E1
:1021C00009688A4206D05268224442601A6812683E
:1021D000026002E0016000E00260984200D01860F6
:1021E00010BC7047940000209000002070B5044699
:1021F00000F0D0FB394B1B680BB9FFF79BFF384B46
:102200001B681C4253D194B1083414F0070F0ED050
:1022100024F00704083404F0070343B14FF05003DF
:1022200083F31188BFF36F8FBFF34F8FFEE7002C4E
:102230003FD02C4B1B689C423DD82B4B1D6801E0C6
:102240002B4615466A68944202D92A68002AF7D1BB
:10225000224A1268954230D01E6808362A681A60F1
:102260006B681B1B102B10D9281910F0070F08D012
:102270004FF0500383F31188BFF36F8FBFF34F8F7D
:10228000FEE743606C60FFF787FF6A6815490B68DB
:102290009B1A0B60154909688B4201D213490B60E8
:1022A0000F4B1B681A436A6000232B6006E0002670
:1022B00004E0002602E0002600E0002600F004FC16
:1022C00016F0070F08D04FF0500383F31188BFF3C7
:1022D0006F8FBFF34F8FFEE7304670BD9000002038
:1022E0009C0C00208C00002094000020A00C0020FA
:1022F000A0B338B50346A0F1080550F8042C1849DE
:10230000096812EA010408D14FF0500383F31188E1
:10231000BFF36F8FBFF34F8FFEE750F8080C40B14B
:102320004FF0500383F31188BFF36F8FBFF34F8FCC
:10233000FEE794B188B91C4622EA010243F8042C56
:1023400000F028FB54F8043C064A11680B44136063
:102350002846FFF721FF00F0B7FB38BD704700BFEC
:102360009C0C00208C0000200B4B1B68B3F1FF3F3E
:1023700008D04FF0500383F31188BFF36F8FBFF382
:102380004F8FFEE74FF0500383F31188BFF36F8F39
:10239000BFF34F8FFEE700BF08000020064800682B
:1023A000006880F3088862B661B6BFF34F8FBFF351
:1023B0006F8F00DF00BF000008ED00E04FF080737A
:1023C00040F8043C21F0010140F8081C034B40F8A0
:1023D0000C3C40F8202C4038704700BF69230008AF
:1023E000074B19680868B0E8F00F80F30988BFF35D
:1023F0006F8F4FF0000080F311884EF00D0E704784
:102400006C0D00204FF0500383F31188BFF36F8FE2
:10241000BFF34F8F0A4A136801331360012B0DD1AC
:10242000084B1B6813F0FF0F08D04FF0500383F3E5
:102430001188BFF36F8FBFF34F8FFEE7704700BF68
:102440000800002004ED00E0094B1B6843B94FF081
:10245000500383F31188BFF36F8FBFF34F8FFEE7F5
:10246000013B034A13600BB983F31188704700BF27
:102470000800002000000000000000000000000034
:10248000EFF30980BFF36F8F0D4B1A6820E9F00F4F
:1024900010602DE908404FF0500080F3118800F0E3
:1024A000F5FB4FF0000080F31188BDE80840196883
:1024B0000868B0E8F00F80F30988BFF36F8F7047AA
:1024C0006C0D002008B54FF0500383F31188BFF363
:1024D0006F8FBFF34F8F00F065FA18B14FF0805245
:1024E000024B1A60002383F3118808BD04ED00E05D
:1024F000064B1B68064AA2FB03239B09013B054AC6
:1025000013600722044B1A60704700BF04000020CC
:10251000D34D621014E000E010E000E000B583B09D
:102520001F4B1A78D2B20192FF221A701B78DBB2CD
:102530008DF803309DF8033003F05003194A1370EF
:102540000722194B1A6009E0174A1368013B136010
:102550009DF803305B00DBB28DF803309DF803304B
:1025600013F0800FF0D1104A13681B0203F4E063EC
:102570001360019BDBB20A4A13700C4B1A6842F4D9
:1025800070021A601A6842F070421A60FFF7B0FFDA
:102590000022074B1A60FFF701FFFFF7E5FE00BFBF
:1025A00000E400E0A40C0020A80C002020ED00E0D6
:1025B0000800002000F1080343604FF0FF32826002
:1025C000C360036100230360704700BF0023036101
:1025D000704700BF43684B609A688A609A68516090
:1025E00099600861036801330360704730B40D6877
:1025F000B5F1FF3F01D1026907E000F1080200E0F8
:102600001A4653681C68A542FAD253684B60996019
:102610008A605160086103680133036030BC704711
:1026200003694268816891608268416851605A68B4
:10263000904201D182685A60002202611868013814
:10264000186070470A4B1B681B680BB9012300E038
:10265000002323B14FF0FF32064B1A607047044B42
:102660001B68DB68DB685A68024B1A60704700BF62
:10267000B00C00208C0D002010B50446006BFFF755
:1026800037FE2046FFF734FE10BD00BF2DE9F047AE
:1026900080469946089D099F0A9C236B02F180425F
:1026A000013A03EB820626F00706002306E0C85C29
:1026B000E21882F83400CA5C12B101330F2BF6D94C
:1026C000002384F84330062D00D90625E5626564B1
:1026D0004FF0000AC4F848A0201DFFF777FF04F16F
:1026E0001800FFF773FF2461C5F10705A561646257
:1026F000C4F84CA084F850A04A4641463046FFF743
:102700005DFE206007B13C60BDE8F08738B500246D
:1027100007E004EB840293000E481844FFF74AFFD9
:102720000134062CF5D90C4D2846FFF743FF0B4C1E
:102730002046FFF73FFF0A48FFF73CFF0948FFF735
:1027400039FF0948FFF736FF084B1D60084B1C6036
:1027500038BD00BFD40C0020940D0020A80D00202F
:10276000700D0020B80C0020BC0D0020B00C002023
:10277000CC0C002010B50446FFF744FE204A136835
:10278000013313601F4B1B683BB91E4B1C60136861
:10279000012B0DD1FFF7BAFF0AE01B4B1B683BB9B9
:1027A000184B1B68DA6AE36A9A4201D8154B1C6021
:1027B000164A136801331360E36A012202FA03F137
:1027C000134802680A43026003EB83039A00211D49
:1027D00010481044FFF7FEFEFFF736FE0A4B1B6859
:1027E0006BB1084B1B68DA6AE36A9A4207D24FF072
:1027F0008052094B1A60BFF34F8FBFF36F8F10BD2C
:10280000680D00206C0D0020B40C0020900D0020FD
:10281000D00D0020D40C002004ED00E070B504467B
:102820000E461D4B1D681D4B18680430FFF7F8FE5F
:1028300050B91A4B1B68DA6A012303FA02F21849ED
:102840000B6823EA02030B60B4F1FF3F07D136B1F6
:10285000124B196804311348FFF7BCFE70BD2C44BD
:102860000E4B1B685C60A54207D90F4B18680B4BD9
:1028700019680431FFF7BAFE70BD0C4B1868074B9E
:1028800019680431FFF7B2FE094B1B689C4201D264
:10289000074B1C6070BD00BF880D00206C0D002030
:1028A000D00D0020BC0D0020CC0C0020B00C00206E
:1028B0008C0D00202DE9F04385B006460F461546E5
:1028C00098469000FFF792FC60B181465420FFF7D4
:1028D0008DFC044610B1C0F8309004E04846FFF784
:1028E00007FD00E000248CB10023039302940D9BAC
:1028F00001930C9B009343462A4639463046FFF726
:10290000C5FE2046FFF736FF012001E04FF0FF3003
:1029100005B0BDE8F08300BF00B583B0174B01934D
:1029200000230093802216491648FFF7C3FF0128B1
:1029300014D14FF0500383F31188BFF36F8FBFF3AF
:102940004F8F4FF0FF32104B1A6001220F4B1A606D
:1029500000220F4B1A60FFF7E1FD0BE0B0F1FF3FE3
:1029600008D14FF0500383F31188BFF36F8FBFF38B
:102970004F8FFEE703B05DF804FB00BF840D00201D
:1029800064370008652C00088C0D0020B40C002072
:10299000880D0020024A136801331360704700BF9E
:1029A000600D0020F8B53D4B1B68002B69D13C4BF6
:1029B0001D6801351D60C5B93A4B1B681B6843B1E2
:1029C0004FF0500383F31188BFF36F8FBFF34F8F26
:1029D000FEE7344A1168344B186810601960334AB6
:1029E000136801331360FFF72DFE314B1B689D42C6
:1029F00003D200243AE0012400E00024294B1B68A4
:102A00001B680BB9012300E0002323B14FF0FF3214
:102A1000274B1A602AE0234B1B68DB68DE6873686B
:102A20009D4202D2224A136020E0371D3846FFF74C
:102A3000F7FDB36A1BB106F11800FFF7F1FDF36A69
:102A4000012202FA03F11B4802680A43026003EB09
:102A500083039A00394618481044FFF7BBFDF26A19
:102A6000164B1B68DB6A9A42C5D2C7E7134B1B683B
:102A7000DB6A03EB83039A000F4B9B58012B06D8AC
:102A800006E00F4A136801331360002400E00124BC
:102A90000C4B1B6803B101242046F8BD600D0020DB
:102AA000880D0020B00C0020CC0C0020AC0C0020C5
:102AB0008C0D0020D00D0020D40C00206C0D0020C7
:102AC000D00C0020D40D002038B5344B1B6843B91E
:102AD0004FF0500383F31188BFF36F8FBFF34F8F15
:102AE000FEE7FFF78FFC2D4B1A68013A1A601B684E
:102AF000002B4CD12A4B1B6833BB00244AE0294BE6
:102B0000DB68DC6804F11800FFF78AFD251D284604
:102B1000FFF786FDE36A012202FA03F12248026808
:102B20000A43026003EB83039A0029461F481044BE
:102B3000FFF750FDE26A1E4B1B68DB6A9A4204D322
:102B400001221C4B1A6000E00024164B1B68002B6E
:102B5000D5D10CB1FFF776FD174B1C6854B1FFF7C8
:102B600021FF10B10122134B1A60013CF7D1002262
:102B7000114B1A600F4B1B685BB14FF080520F4B2B
:102B80001A60BFF34F8FBFF36F8F012402E0002460
:102B900000E00024FFF758FC204638BD600D0020FF
:102BA000680D0020700D0020D00D0020D40C0020F6
:102BB0006C0D0020D40D0020D00C002004ED00E0AE
:102BC00010B5A8B10446104B1B6843B14FF0500339
:102BD00083F31188BFF36F8FBFF34F8FFEE7FFF7CB
:102BE000D9FE00212046FFF719FEFFF76DFF00E038
:102BF000002038B94FF08052044B1A60BFF34F8F5A
:102C0000BFF36F8F10BD00BF600D002004ED00E02A
:102C100010B51BE0FFF7BEFE0F4B1C68FFF754FF1B
:102C2000A4B1FFF7EFFB0C4BDB68DC68201DFFF75E
:102C3000F7FC0A4A1368013B1360094A1368013B19
:102C40001360FFF701FC2046FFF716FD044B1B68DD
:102C5000002BDFD110BD00BFB80C0020680D002094
:102C6000640D002008B5FFF7D3FF064B1B68012B4E
:102C7000F9D94FF08052044B1A60BFF34F8FBFF366
:102C80006F8FF0E7D40C002004ED00E01F4B1B68B1
:102C90001BB101221E4B1A60704700221C4B1A60A8
:102CA0001C4B1B68B3FA83F3DBB2C3F11F0303EBC6
:102CB00083018A0018498A5842B94FF0500383F3C0
:102CC0001188BFF36F8FBFF34F8FFEE730B4124D03
:102CD0009900CA1890002844426854684460194416
:102CE0008A0008322A44944205D1606803EB8301CC
:102CF0008A002A44506003EB83039A00064B1A446F
:102D00005368DA68054B1A6030BC7047600D0020CC
:102D1000D40D0020D00D0020D40C00206C0D00201C
:102D2000054B1B6823B1054B1B681BB9022070477C
:102D30000120704700207047B40C0020600D002077
:102D4000842801D0033070470020704708B5FFF792
:102D5000E3FD002008BD00BFF0B585B00F46446814
:102D600005680669B0F90800FFF7EAFF03AB0193B5
:102D700000903B46B2B229462046FFF79BFD012852
:102D800001D1039800E0002005B0F0BD08B508B9F6
:102D90000120FFE7FFF714FF002008BD08B5FFF78B
:102DA000BFFF012801D0FFF78DFB08BD002103E024
:102DB0000B4B5B58435004310A480B4B42189A4264
:102DC000F6D30A4A02E0002342F8043B084B9A4239
:102DD000F9D3FFF789F900F00FF8FDF767FB7047AB
:102DE000A8370008000000207000002070000020BC
:102DF000240F0020FEE700000E4B70B51E460E4C5F
:102E00000025E41AA410A54204D056F825309847AE
:102E10000135F8E700F054FC084B094C1E46E41A53
:102E2000A4100025A54204D056F825309847013556
:102E3000F8E770BDA0370008A0370008A0370008E9
:102E4000A437000810B5431E0A44914204D011F87B
:102E5000014B03F8014FF8E710BD00000EB400B5B8
:102E60004FF402719CB0ADF814106FF00041049162
:102E700007914FF6FF711DAB02900690084853F87A
:102E8000042BADF81610006802A9019300F064F855
:102E9000029B00221A701CB05DF804EB03B070476F
:102EA0006C0000202DE9F0478E6882469E420C4659
:102EB000914698463ED88A8912F4906F3AD0256898
:102EC000096902236F1A656905EB450595FBF3F562
:102ED0007B1C43449D4238BF1D4653050FD52946F0
:102EE00000F040FB064698B13A462169FFF7AAFF79
:102EF000A38923F4906343F08003A38113E02A465F
:102F000000F08EFB064670B92169504600F0DEFAEB
:102F10000C23CAF80030A3894FF0FF3043F0400380
:102F2000A381BDE8F08726613E4426604646656180
:102F3000ED1BA560464528BF4646494632462068F7
:102F400000F0A8FAA36800209B1BA36023681E441E
:102F50002660BDE8F08700002DE9F04F9DB0039397
:102F60008B8980461C060D4616460DD50B695BB94C
:102F7000402100F0F7FA2860286118B90C23C8F83E
:102F80000030CDE040236B610023099320238DF8AE
:102F90002930DFF89CB130238DF82A3037463C4683
:102FA00014F8013B1BB9B7EB060910D003E0252B41
:102FB000F9D02746F3E74B46324629464046FFF70D
:102FC00071FF013000F0A780099B4B4409933B78C7
:102FD000002B00F0A08000234FF0FF3204930793F2
:102FE000059206938DF853301A9301260522217815
:102FF0004E4800F041FA671C049B38B14B4A3C46EE
:10300000801A06FA00F018430490EFE7D90644BF8F
:1030100020228DF853201A0744BF2B228DF853200D
:1030200022782A2A03D0079A00210A200BE0039A6B
:10303000111D12680391002A10DA524243F0020077
:10304000079204900BE027463B780134303B092B74
:1030500003D800FB02320121F5E701B107923B786A
:103060002E2B1ED17B782A2B0AD1039B02371A1DE7
:103070001B680392002BB8BF4FF0FF33059310E09D
:10308000002319460593781C0A2407463A78013034
:10309000303A092A03D804FB01210123F5E703B1E3
:1030A000059103223978224800F0E6F940B1402327
:1030B000CBEB000003FA00F0049B013718430490A7
:1030C000397806221B487E1C8DF8281000F0D4F9B0
:1030D00088B1194B33B9039B073323F00703083337
:1030E000039314E003AB00932A46144B04A9404613
:1030F000AFF3008007E003AB00932A460F4B04A90F
:10310000404600F093F8B0F1FF3F824603D0099BA0
:103110005344099342E7AB895B0601D4099801E067
:103120004FF0FF301DB0BDE8F08F00BF6C370008D6
:10313000723700087637000800000000A52E00084E
:103140002DE9F04791461F460A698B68064693426F
:10315000B8BF1346C9F8003091F843200C46DDF89B
:10316000208012B10133C9F800302368990642BFAC
:10317000D9F800300233C9F80030256815F006058B
:1031800010D104F1190A07E00123524639463046AE
:10319000C04701301AD00135E368D9F800209B1AE6
:1031A0009D42F1DB94F843302268003318BF0123BD
:1031B00092060FD5E118302081F843005A1C94F88C
:1031C00045102244023382F8431003E04FF0FF30F1
:1031D000BDE8F08704F1430239463046C04701306C
:1031E000F4D02268D9F80050E36802F00602042AFD
:1031F00008BF5D1B2269A3680CBF25EAE5750025A1
:103200009342C4BF9B1AED184FF000091A344D4584
:1032100009D00123224639463046C0470130D5D077
:1032200009F10109F3E70020BDE8F0872DE9F0433B
:1032300017460A7E85B06E2A984606460C460C9BB9
:1032400001F1430E00F0AE8011D8632A22D009D8D4
:10325000002A00F0BB80582A40F0CA8081F845203F
:10326000834955E0642A1ED0692A1CD0C0E0732A25
:1032700000F0B08009D86F2A2ED0702A40F0B880B4
:103280000A6842F020020A603EE0752A24D0782ABB
:103290003AD0ADE01A6801F14205111D19601368BA
:1032A00084F84230A8E021681A6811F0800F02D03B
:1032B000111D196008E011F0400F02F104011960BE
:1032C00002D0B2F9003000E01368002B3CDA2D2266
:1032D0005B4284F8432037E021681A6811F0800FC0
:1032E00002D0111D196007E011F0400F02F1040136
:1032F000196001D0138800E01368227E5C496F2AB0
:1033000014BF0A2208221BE078225A4984F845207B
:103310002268186812F0800F00F104051D6003D1C7
:10332000550601D5038800E00368D00744BF42F08A
:10333000200222601BB9226822F0200222601022A3
:10334000002084F8430001E049490A226568002D05
:10335000A56008DB206820F0040020602BB9002D58
:103360007DD175460CE0002B79D07546B3FBF2F0A9
:1033700002FB1033CB5C05F8013D03460028F5D174
:10338000082A0BD12368DA0708D5236962689A42B4
:10339000DEBF302305F8013C05F1FF35C5EB0E0318
:1033A00023612EE008681A6810F0800F496903D085
:1033B000101D1860136808E010F0400F02F10400BF
:1033C0001860136801D0198000E0196000232361A0
:1033D000754616E01A68111D1960156800216268AB
:1033E000284600F049F808B1401B6060636804E0BB
:1033F00004F1420584F8422001232361002384F86C
:103400004330CDF800803B4603AA21463046FFF703
:1034100097FE013002D14FF0FF3026E023692A46A3
:1034200039463046C0470130F5D023689B0710D598
:10343000002504F1190907E001234A4639463046C0
:10344000C0470130E7D00135E368039A9B1A9D42DB
:10345000F2DBE068039B9842B8BF184605E00B78A2
:1034600004F1420584F842308AE705B0BDE8F083F4
:103470007D3700088E37000810B5C9B2024490426B
:10348000034605D01C7801308C42F8D1184610BD97
:10349000002010BD884210B501EB020301D8421E86
:1034A0000BE09842FBD28118D21AD34204D013F811
:1034B000014D01F8014DF8E710BD994204D011F813
:1034C000014B02F8014FF8E710BD000038B5054682
:1034D000002944D051F8043C0C1F002BB8BFE4185D
:1034E00000F0D4F81E4A1368114613B963601460E3
:1034F00030E0A3420DD92268A018834201BF1868AA
:103500005B681218226063600C6023E0A24203D85B
:1035100013465A68002AF9D118681918A1420BD12C
:103520002168014458188242196013D1106852680A
:10353000014419605A600DE002D90C232B6009E0A8
:1035400021686018824201BF106852680918216022
:1035500062605C602846BDE8384000F098B838BD2D
:10356000DC0D002070B5CD1C25F0030508350C2DB1
:1035700038BF0C25002D064601DBA94202D90C23D9
:10358000336046E000F082F8234B1C681A4621465F
:10359000A1B10B685B1B0ED40B2B03D90B60CC18AD
:1035A000CD501EE08C420BBF63684B6813606360B4
:1035B00018BF0C4615E00C464968E9E7174C23682C
:1035C0001BB9304600F052F820602946304600F022
:1035D0004DF8431C18D0C41C24F00304A0420DD1A4
:1035E0002560304600F053F804F10B00231D20F055
:1035F0000700C31A0ED05A42E25070BD211A30465D
:1036000000F034F80130EBD10C233360304600F089
:103610003EF8002070BD00BFDC0D0020D80D00205A
:10362000F8B5074615460E4621B91146BDE8F840E3
:10363000FFF798BF1AB9FFF749FF2846F8BD00F019
:1036400027F885420ED929463846FFF78BFF0446F6
:1036500050B131462A46FFF7F5FB31463846FFF7B1
:1036600035FF01E03046F8BD2046F8BD38B5064CC0
:10367000002305460846236000F014F8431C02D1DD
:10368000236803B12B6038BD200F002070477047BE
:1036900051F8040C0028BEBF091851F8043CC018AA
:1036A00004387047044A05491368002B08BF0B46CD
:1036B0001844106018467047E00D0020280F0020C5
:1036C000F8B500BFF8BC08BC9E467047F8B500BF0F
:0836D000F8BC08BC9E467047DF
:1036D80044370008B902000800000000000000009C
:1036E800000100003C37000811030008000000003A
:1036F8000000000000010000020304050607080995
:103708000A0B0C0D0E0F1010010200000D0A467571
:103718006E635F5461736B300D0A00000D0A4F4BE6
:103728000D0A0000257800005372632F6D61696EE1
:103738002E6300005461736B310000005461736B99
:103748003000000000000000000000000102030437
:1037580006070809000000000102030449444C451B
:1037680000000000232D302B2000686C4C0065669B
:1037780067454647003031323334353637383941BA
:1037880042434445460030313233343536373839D0
:083798006162636465660000D4
:0437A0001502000806
:0437A400F101000827
:1037A8000100000000A24A04AAAAAAAA0000000078
:1037B8000000000000000000000000000000000001
:1037C80000000000000000000000000000000000F1
:1037D80000000000000000000000000000000000E1
:1037E80000000000000000000000000000000000D1
:1037F80000000000000000000000000000000000C1
:103808000000000000000000000000000C00002084
:0400000508002DAD15
:00000001FF
